{
  "contractName": "ResultDapp",
  "abi": [
    {
      "inputs": [],
      "payable": false,
      "stateMutability": "nonpayable",
      "type": "constructor"
    },
    {
      "anonymous": false,
      "inputs": [
        {
          "indexed": false,
          "internalType": "uint256",
          "name": "id",
          "type": "uint256"
        },
        {
          "indexed": false,
          "internalType": "string",
          "name": "full_name",
          "type": "string"
        },
        {
          "indexed": false,
          "internalType": "string",
          "name": "mat_no",
          "type": "string"
        },
        {
          "indexed": false,
          "internalType": "string",
          "name": "department",
          "type": "string"
        },
        {
          "indexed": false,
          "internalType": "string",
          "name": "course_name_one",
          "type": "string"
        },
        {
          "indexed": false,
          "internalType": "string",
          "name": "course_name_two",
          "type": "string"
        },
        {
          "indexed": false,
          "internalType": "string",
          "name": "grade_one",
          "type": "string"
        },
        {
          "indexed": false,
          "internalType": "string",
          "name": "grade_two",
          "type": "string"
        }
      ],
      "name": "ResultCreated",
      "type": "event"
    },
    {
      "constant": true,
      "inputs": [],
      "name": "admin",
      "outputs": [
        {
          "internalType": "address",
          "name": "",
          "type": "address"
        }
      ],
      "payable": false,
      "stateMutability": "view",
      "type": "function"
    },
    {
      "constant": true,
      "inputs": [],
      "name": "dapp_name",
      "outputs": [
        {
          "internalType": "string",
          "name": "",
          "type": "string"
        }
      ],
      "payable": false,
      "stateMutability": "view",
      "type": "function"
    },
    {
      "constant": true,
      "inputs": [],
      "name": "result_count",
      "outputs": [
        {
          "internalType": "uint256",
          "name": "",
          "type": "uint256"
        }
      ],
      "payable": false,
      "stateMutability": "view",
      "type": "function"
    },
    {
      "constant": true,
      "inputs": [
        {
          "internalType": "uint256",
          "name": "",
          "type": "uint256"
        }
      ],
      "name": "results",
      "outputs": [
        {
          "internalType": "uint256",
          "name": "id",
          "type": "uint256"
        },
        {
          "internalType": "string",
          "name": "full_name",
          "type": "string"
        },
        {
          "internalType": "string",
          "name": "mat_no",
          "type": "string"
        },
        {
          "internalType": "string",
          "name": "department",
          "type": "string"
        },
        {
          "internalType": "string",
          "name": "course_name_one",
          "type": "string"
        },
        {
          "internalType": "string",
          "name": "course_name_two",
          "type": "string"
        },
        {
          "internalType": "string",
          "name": "grade_one",
          "type": "string"
        },
        {
          "internalType": "string",
          "name": "grade_two",
          "type": "string"
        }
      ],
      "payable": false,
      "stateMutability": "view",
      "type": "function"
    },
    {
      "constant": false,
      "inputs": [
        {
          "internalType": "string",
          "name": "_full_name",
          "type": "string"
        },
        {
          "internalType": "string",
          "name": "_mat_no",
          "type": "string"
        },
        {
          "internalType": "string",
          "name": "_department",
          "type": "string"
        },
        {
          "internalType": "string",
          "name": "_course_name_one",
          "type": "string"
        },
        {
          "internalType": "string",
          "name": "_course_name_two",
          "type": "string"
        },
        {
          "internalType": "string",
          "name": "_grade_one",
          "type": "string"
        },
        {
          "internalType": "string",
          "name": "_grade_two",
          "type": "string"
        }
      ],
      "name": "createResult",
      "outputs": [],
      "payable": false,
      "stateMutability": "nonpayable",
      "type": "function"
    },
    {
      "constant": false,
      "inputs": [
        {
          "internalType": "uint256",
          "name": "_id",
          "type": "uint256"
        }
      ],
      "name": "deleteResult",
      "outputs": [],
      "payable": false,
      "stateMutability": "nonpayable",
      "type": "function"
    },
    {
      "constant": true,
      "inputs": [
        {
          "internalType": "uint256",
          "name": "_id",
          "type": "uint256"
        }
      ],
      "name": "getResult",
      "outputs": [
        {
          "internalType": "uint256",
          "name": "id",
          "type": "uint256"
        },
        {
          "internalType": "string",
          "name": "",
          "type": "string"
        },
        {
          "internalType": "string",
          "name": "",
          "type": "string"
        },
        {
          "internalType": "string",
          "name": "",
          "type": "string"
        },
        {
          "internalType": "string",
          "name": "",
          "type": "string"
        },
        {
          "internalType": "string",
          "name": "",
          "type": "string"
        },
        {
          "internalType": "string",
          "name": "",
          "type": "string"
        },
        {
          "internalType": "string",
          "name": "",
          "type": "string"
        }
      ],
      "payable": false,
      "stateMutability": "view",
      "type": "function"
    }
  ],
  "bytecode": "0x6080604052600080556040518060400160405280601681526020017f526573756c742050726f63657373696e672044617070000000000000000000008152506002908051906020019062000055929190620000ab565b503480156200006357600080fd5b5033600360006101000a81548173ffffffffffffffffffffffffffffffffffffffff021916908373ffffffffffffffffffffffffffffffffffffffff1602179055506200015a565b828054600181600116156101000203166002900490600052602060002090601f016020900481019282601f10620000ee57805160ff19168380011785556200011f565b828001600101855582156200011f579182015b828111156200011e57825182559160200191906001019062000101565b5b5090506200012e919062000132565b5090565b6200015791905b808211156200015357600081600090555060010162000139565b5090565b90565b611daf806200016a6000396000f3fe608060405234801561001057600080fd5b506004361061007d5760003560e01c8063995e43391161005b578063995e433914610404578063b3ea346b1461073a578063f851a440146107bd578063f918ae16146108075761007d565b80631b0c27da146100825780634674df07146103b85780637adf5f39146103e6575b600080fd5b6100ae6004803603602081101561009857600080fd5b8101908080359060200190929190505050610c4c565b604051808981526020018060200180602001806020018060200180602001806020018060200188810388528f818151815260200191508051906020019080838360005b8381101561010c5780820151818401526020810190506100f1565b50505050905090810190601f1680156101395780820380516001836020036101000a031916815260200191505b5088810387528e818151815260200191508051906020019080838360005b83811015610172578082015181840152602081019050610157565b50505050905090810190601f16801561019f5780820380516001836020036101000a031916815260200191505b5088810386528d818151815260200191508051906020019080838360005b838110156101d85780820151818401526020810190506101bd565b50505050905090810190601f1680156102055780820380516001836020036101000a031916815260200191505b5088810385528c818151815260200191508051906020019080838360005b8381101561023e578082015181840152602081019050610223565b50505050905090810190601f16801561026b5780820380516001836020036101000a031916815260200191505b5088810384528b818151815260200191508051906020019080838360005b838110156102a4578082015181840152602081019050610289565b50505050905090810190601f1680156102d15780820380516001836020036101000a031916815260200191505b5088810383528a818151815260200191508051906020019080838360005b8381101561030a5780820151818401526020810190506102ef565b50505050905090810190601f1680156103375780820380516001836020036101000a031916815260200191505b50888103825289818151815260200191508051906020019080838360005b83811015610370578082015181840152602081019050610355565b50505050905090810190601f16801561039d5780820380516001836020036101000a031916815260200191505b509f5050505050505050505050505050505060405180910390f35b6103e4600480360360208110156103ce57600080fd5b81019080803590602001909291905050506110bc565b005b6103ee6111a7565b6040518082815260200191505060405180910390f35b6104306004803603602081101561041a57600080fd5b81019080803590602001909291905050506111ad565b604051808981526020018060200180602001806020018060200180602001806020018060200188810388528f818151815260200191508051906020019080838360005b8381101561048e578082015181840152602081019050610473565b50505050905090810190601f1680156104bb5780820380516001836020036101000a031916815260200191505b5088810387528e818151815260200191508051906020019080838360005b838110156104f45780820151818401526020810190506104d9565b50505050905090810190601f1680156105215780820380516001836020036101000a031916815260200191505b5088810386528d818151815260200191508051906020019080838360005b8381101561055a57808201518184015260208101905061053f565b50505050905090810190601f1680156105875780820380516001836020036101000a031916815260200191505b5088810385528c818151815260200191508051906020019080838360005b838110156105c05780820151818401526020810190506105a5565b50505050905090810190601f1680156105ed5780820380516001836020036101000a031916815260200191505b5088810384528b818151815260200191508051906020019080838360005b8381101561062657808201518184015260208101905061060b565b50505050905090810190601f1680156106535780820380516001836020036101000a031916815260200191505b5088810383528a818151815260200191508051906020019080838360005b8381101561068c578082015181840152602081019050610671565b50505050905090810190601f1680156106b95780820380516001836020036101000a031916815260200191505b50888103825289818151815260200191508051906020019080838360005b838110156106f25780820151818401526020810190506106d7565b50505050905090810190601f16801561071f5780820380516001836020036101000a031916815260200191505b509f5050505050505050505050505050505060405180910390f35b6107426116b4565b6040518080602001828103825283818151815260200191508051906020019080838360005b83811015610782578082015181840152602081019050610767565b50505050905090810190601f1680156107af5780820380516001836020036101000a031916815260200191505b509250505060405180910390f35b6107c5611752565b604051808273ffffffffffffffffffffffffffffffffffffffff1673ffffffffffffffffffffffffffffffffffffffff16815260200191505060405180910390f35b610c4a600480360360e081101561081d57600080fd5b810190808035906020019064010000000081111561083a57600080fd5b82018360208201111561084c57600080fd5b8035906020019184600183028401116401000000008311171561086e57600080fd5b91908080601f016020809104026020016040519081016040528093929190818152602001838380828437600081840152601f19601f820116905080830192505050505050509192919290803590602001906401000000008111156108d157600080fd5b8201836020820111156108e357600080fd5b8035906020019184600183028401116401000000008311171561090557600080fd5b91908080601f016020809104026020016040519081016040528093929190818152602001838380828437600081840152601f19601f8201169050808301925050505050505091929192908035906020019064010000000081111561096857600080fd5b82018360208201111561097a57600080fd5b8035906020019184600183028401116401000000008311171561099c57600080fd5b91908080601f016020809104026020016040519081016040528093929190818152602001838380828437600081840152601f19601f820116905080830192505050505050509192919290803590602001906401000000008111156109ff57600080fd5b820183602082011115610a1157600080fd5b80359060200191846001830284011164010000000083111715610a3357600080fd5b91908080601f016020809104026020016040519081016040528093929190818152602001838380828437600081840152601f19601f82011690508083019250505050505050919291929080359060200190640100000000811115610a9657600080fd5b820183602082011115610aa857600080fd5b80359060200191846001830284011164010000000083111715610aca57600080fd5b91908080601f016020809104026020016040519081016040528093929190818152602001838380828437600081840152601f19601f82011690508083019250505050505050919291929080359060200190640100000000811115610b2d57600080fd5b820183602082011115610b3f57600080fd5b80359060200191846001830284011164010000000083111715610b6157600080fd5b91908080601f016020809104026020016040519081016040528093929190818152602001838380828437600081840152601f19601f82011690508083019250505050505050919291929080359060200190640100000000811115610bc457600080fd5b820183602082011115610bd657600080fd5b80359060200191846001830284011164010000000083111715610bf857600080fd5b91908080601f016020809104026020016040519081016040528093929190818152602001838380828437600081840152601f19601f820116905080830192505050505050509192919290505050611778565b005b6001602052806000526040600020600091509050806000015490806001018054600181600116156101000203166002900480601f016020809104026020016040519081016040528092919081815260200182805460018160011615610100020316600290048015610cfe5780601f10610cd357610100808354040283529160200191610cfe565b820191906000526020600020905b815481529060010190602001808311610ce157829003601f168201915b505050505090806002018054600181600116156101000203166002900480601f016020809104026020016040519081016040528092919081815260200182805460018160011615610100020316600290048015610d9c5780601f10610d7157610100808354040283529160200191610d9c565b820191906000526020600020905b815481529060010190602001808311610d7f57829003601f168201915b505050505090806003018054600181600116156101000203166002900480601f016020809104026020016040519081016040528092919081815260200182805460018160011615610100020316600290048015610e3a5780601f10610e0f57610100808354040283529160200191610e3a565b820191906000526020600020905b815481529060010190602001808311610e1d57829003601f168201915b505050505090806004018054600181600116156101000203166002900480601f016020809104026020016040519081016040528092919081815260200182805460018160011615610100020316600290048015610ed85780601f10610ead57610100808354040283529160200191610ed8565b820191906000526020600020905b815481529060010190602001808311610ebb57829003601f168201915b505050505090806005018054600181600116156101000203166002900480601f016020809104026020016040519081016040528092919081815260200182805460018160011615610100020316600290048015610f765780601f10610f4b57610100808354040283529160200191610f76565b820191906000526020600020905b815481529060010190602001808311610f5957829003601f168201915b505050505090806006018054600181600116156101000203166002900480601f0160208091040260200160405190810160405280929190818152602001828054600181600116156101000203166002900480156110145780601f10610fe957610100808354040283529160200191611014565b820191906000526020600020905b815481529060010190602001808311610ff757829003601f168201915b505050505090806007018054600181600116156101000203166002900480601f0160208091040260200160405190810160405280929190818152602001828054600181600116156101000203166002900480156110b25780601f10611087576101008083540402835291602001916110b2565b820191906000526020600020905b81548152906001019060200180831161109557829003601f168201915b5050505050905088565b600360009054906101000a900473ffffffffffffffffffffffffffffffffffffffff1673ffffffffffffffffffffffffffffffffffffffff163373ffffffffffffffffffffffffffffffffffffffff161461111657600080fd5b600160008281526020019081526020016000206000808201600090556001820160006111429190611c48565b6002820160006111529190611c48565b6003820160006111629190611c48565b6004820160006111729190611c48565b6005820160006111829190611c48565b6006820160006111929190611c48565b6007820160006111a29190611c48565b505050565b60005481565b600060608060608060608060606111c2611c90565b600160008b81526020019081526020016000206040518061010001604052908160008201548152602001600182018054600181600116156101000203166002900480601f0160208091040260200160405190810160405280929190818152602001828054600181600116156101000203166002900480156112845780601f1061125957610100808354040283529160200191611284565b820191906000526020600020905b81548152906001019060200180831161126757829003601f168201915b50505050508152602001600282018054600181600116156101000203166002900480601f0160208091040260200160405190810160405280929190818152602001828054600181600116156101000203166002900480156113265780601f106112fb57610100808354040283529160200191611326565b820191906000526020600020905b81548152906001019060200180831161130957829003601f168201915b50505050508152602001600382018054600181600116156101000203166002900480601f0160208091040260200160405190810160405280929190818152602001828054600181600116156101000203166002900480156113c85780601f1061139d576101008083540402835291602001916113c8565b820191906000526020600020905b8154815290600101906020018083116113ab57829003601f168201915b50505050508152602001600482018054600181600116156101000203166002900480601f01602080910402602001604051908101604052809291908181526020018280546001816001161561010002031660029004801561146a5780601f1061143f5761010080835404028352916020019161146a565b820191906000526020600020905b81548152906001019060200180831161144d57829003601f168201915b50505050508152602001600582018054600181600116156101000203166002900480601f01602080910402602001604051908101604052809291908181526020018280546001816001161561010002031660029004801561150c5780601f106114e15761010080835404028352916020019161150c565b820191906000526020600020905b8154815290600101906020018083116114ef57829003601f168201915b50505050508152602001600682018054600181600116156101000203166002900480601f0160208091040260200160405190810160405280929190818152602001828054600181600116156101000203166002900480156115ae5780601f10611583576101008083540402835291602001916115ae565b820191906000526020600020905b81548152906001019060200180831161159157829003601f168201915b50505050508152602001600782018054600181600116156101000203166002900480601f0160208091040260200160405190810160405280929190818152602001828054600181600116156101000203166002900480156116505780601f1061162557610100808354040283529160200191611650565b820191906000526020600020905b81548152906001019060200180831161163357829003601f168201915b5050505050815250509050806000015181602001518260400151836060015184608001518560a001518660c001518760e001518696508595508494508393508292508191508090509850985098509850985098509850985050919395975091939597565b60028054600181600116156101000203166002900480601f01602080910402602001604051908101604052809291908181526020018280546001816001161561010002031660029004801561174a5780601f1061171f5761010080835404028352916020019161174a565b820191906000526020600020905b81548152906001019060200180831161172d57829003601f168201915b505050505081565b600360009054906101000a900473ffffffffffffffffffffffffffffffffffffffff1681565b600360009054906101000a900473ffffffffffffffffffffffffffffffffffffffff1673ffffffffffffffffffffffffffffffffffffffff163373ffffffffffffffffffffffffffffffffffffffff16146117d257600080fd5b60008081548092919060010191905055506040518061010001604052806000548152602001888152602001878152602001868152602001858152602001848152602001838152602001828152506001600080548152602001908152602001600020600082015181600001556020820151816001019080519060200190611859929190611cd5565b506040820151816002019080519060200190611876929190611cd5565b506060820151816003019080519060200190611893929190611cd5565b5060808201518160040190805190602001906118b0929190611cd5565b5060a08201518160050190805190602001906118cd929190611cd5565b5060c08201518160060190805190602001906118ea929190611cd5565b5060e0820151816007019080519060200190611907929190611cd5565b509050507ff4262325e8a40796b5378c8fab4e19089f828f1013298ff6e77c77da52bbc83160005488888888888888604051808981526020018060200180602001806020018060200180602001806020018060200188810388528f818151815260200191508051906020019080838360005b83811015611994578082015181840152602081019050611979565b50505050905090810190601f1680156119c15780820380516001836020036101000a031916815260200191505b5088810387528e818151815260200191508051906020019080838360005b838110156119fa5780820151818401526020810190506119df565b50505050905090810190601f168015611a275780820380516001836020036101000a031916815260200191505b5088810386528d818151815260200191508051906020019080838360005b83811015611a60578082015181840152602081019050611a45565b50505050905090810190601f168015611a8d5780820380516001836020036101000a031916815260200191505b5088810385528c818151815260200191508051906020019080838360005b83811015611ac6578082015181840152602081019050611aab565b50505050905090810190601f168015611af35780820380516001836020036101000a031916815260200191505b5088810384528b818151815260200191508051906020019080838360005b83811015611b2c578082015181840152602081019050611b11565b50505050905090810190601f168015611b595780820380516001836020036101000a031916815260200191505b5088810383528a818151815260200191508051906020019080838360005b83811015611b92578082015181840152602081019050611b77565b50505050905090810190601f168015611bbf5780820380516001836020036101000a031916815260200191505b50888103825289818151815260200191508051906020019080838360005b83811015611bf8578082015181840152602081019050611bdd565b50505050905090810190601f168015611c255780820380516001836020036101000a031916815260200191505b509f5050505050505050505050505050505060405180910390a150505050505050565b50805460018160011615610100020316600290046000825580601f10611c6e5750611c8d565b601f016020900490600052602060002090810190611c8c9190611d55565b5b50565b60405180610100016040528060008152602001606081526020016060815260200160608152602001606081526020016060815260200160608152602001606081525090565b828054600181600116156101000203166002900490600052602060002090601f016020900481019282601f10611d1657805160ff1916838001178555611d44565b82800160010185558215611d44579182015b82811115611d43578251825591602001919060010190611d28565b5b509050611d519190611d55565b5090565b611d7791905b80821115611d73576000816000905550600101611d5b565b5090565b9056fea265627a7a72315820a650194e4cffd9e170f076a7cdcfbcd5b23edb2e067f6d5437cdaabbcc222a2a64736f6c634300050c0032",
  "source": "pragma solidity ^0.5.0;\n\ncontract ResultDapp{\n    \n    uint public result_count = 0; // default value for result count\n    mapping(uint => Result) public results;\n    string public dapp_name = \"Result Processing Dapp\"; // dapp name\n    address public admin;\n    struct Result {\n        uint id;\n        string full_name; \n        string mat_no;\n        string department;\n        string course_name_one;\n        string course_name_two;\n        string grade_one;\n        string grade_two;\n   }\n\n   event ResultCreated(\n        uint id,\n        string full_name,\n        string mat_no,\n        string department,\n        string course_name_one,\n        string course_name_two,\n        string grade_one,\n        string grade_two\n   );\n\n\n    // Ensures only Admin can call a function\n    modifier only_election_authority() {\n        if (msg.sender != admin) revert();\n        _;\n    }\n constructor() public {\n        // electionAuthority = 0x6415d68373647F99270E24eB145be4d6E0141Ab2;\n        admin = msg.sender;\n    }\n\n\n  // create result\n function createResult(\n            string memory _full_name,\n            string memory _mat_no,\n            string memory _department,\n            string memory _course_name_one,\n            string memory _course_name_two,\n            string memory _grade_one,\n            string memory _grade_two\n            ) public only_election_authority{\n    result_count++;\n    results[result_count] = Result(\n                                result_count,\n                                _full_name,\n                                _mat_no,\n                                _department,\n                                _course_name_one,\n                                _course_name_two,\n                                _grade_one,\n                                _grade_two\n                            );\n    emit ResultCreated(\n          result_count,\n          _full_name,\n          _mat_no,\n          _department,\n          _course_name_one,\n          _course_name_two,\n          _grade_one,\n          _grade_two\n    );\n\n  }\n   function deleteResult(uint _id) public only_election_authority{\n       delete results[_id]; \n   }\n\n  function getResult(uint _id)public view returns(\n                                  uint id,\n                                  string memory,\n                                  string memory,\n                                  string memory,\n                                  string memory,\n                                  string memory,\n                                  string memory,\n                                  string memory\n                                  ){\n     Result memory r = results [_id];\n    //  return (r) ;\n        return (\n            r.id,\n            r.full_name,\n            r.mat_no,\n            r.department,\n            r.course_name_one,\n            r.course_name_two,\n            r.grade_one,\n            r.grade_two\n        );\n  }\n}",
  "sourcePath": "/home/goodness/Development/ethereum/deploy_react/client/src/contracts/ResultDapp.sol",
  "compiler": {
    "name": "solc",
    "version": "0.5.12+commit.7709ece9.Emscripten.clang"
  },
  "schemaVersion": "3.0.19",
  "updatedAt": "2020-01-08T23:10:08.138Z",
  "networkType": "ethereum",
  "devdoc": {
    "methods": {}
  },
  "userdoc": {
    "methods": {}
  }
}